{
  "_format": "hh-sol-artifact-1",
  "contractName": "WavePortal",
  "sourceName": "contracts/WavePortal.sol",
  "abi": [
    {
      "inputs": [],
      "stateMutability": "payable",
      "type": "constructor"
    },
    {
      "anonymous": false,
      "inputs": [
        {
          "indexed": true,
          "internalType": "address",
          "name": "from",
          "type": "address"
        },
        {
          "indexed": false,
          "internalType": "uint256",
          "name": "timestamp",
          "type": "uint256"
        },
        {
          "indexed": false,
          "internalType": "string",
          "name": "message",
          "type": "string"
        }
      ],
      "name": "NewWave",
      "type": "event"
    },
    {
      "inputs": [],
      "name": "getAllWaves",
      "outputs": [
        {
          "components": [
            {
              "internalType": "address",
              "name": "waver",
              "type": "address"
            },
            {
              "internalType": "string",
              "name": "message",
              "type": "string"
            },
            {
              "internalType": "uint256",
              "name": "timestamp",
              "type": "uint256"
            }
          ],
          "internalType": "struct WavePortal.Wave[]",
          "name": "",
          "type": "tuple[]"
        }
      ],
      "stateMutability": "view",
      "type": "function"
    },
    {
      "inputs": [],
      "name": "getTotalWaves",
      "outputs": [
        {
          "internalType": "uint256",
          "name": "",
          "type": "uint256"
        }
      ],
      "stateMutability": "view",
      "type": "function"
    },
    {
      "inputs": [
        {
          "internalType": "string",
          "name": "_message",
          "type": "string"
        }
      ],
      "name": "wave",
      "outputs": [],
      "stateMutability": "nonpayable",
      "type": "function"
    }
  ],
  "bytecode": "0x60806040526200004f6040518060400160405280601981526020017f4920414d20534d41525420434f4e54524143542e20504f472e000000000000008152506200005560201b620004c31760201c565b620001e9565b620000f5816040516024016200006c919062000162565b6040516020818303038152906040527f41304fac000000000000000000000000000000000000000000000000000000007bffffffffffffffffffffffffffffffffffffffffffffffffffffffff19166020820180517bffffffffffffffffffffffffffffffffffffffffffffffffffffffff8381831617835250505050620000f860201b60201c565b50565b60008151905060006a636f6e736f6c652e6c6f679050602083016000808483855afa5050505050565b60006200012e8262000186565b6200013a818562000191565b93506200014c818560208601620001a2565b6200015781620001d8565b840191505092915050565b600060208201905081810360008301526200017e818462000121565b905092915050565b600081519050919050565b600082825260208201905092915050565b60005b83811015620001c2578082015181840152602081019050620001a5565b83811115620001d2576000848401525b50505050565b6000601f19601f8301169050919050565b610de480620001f96000396000f3fe608060405234801561001057600080fd5b50600436106100415760003560e01c8063449d46c0146100465780639a2cdc0814610062578063bd43a90814610080575b600080fd5b610060600480360381019061005b919061072c565b61009e565b005b61006a610369565b6040516100779190610a26565b60405180910390f35b610088610372565b6040516100959190610972565b60405180910390f35b60016000808282546100b09190610b38565b925050819055506100f66040518060400160405280600d81526020017f25732068617320776176656421000000000000000000000000000000000000008152503361055c565b600160405180606001604052803373ffffffffffffffffffffffffffffffffffffffff16815260200183815260200142815250908060018154018082558091505060019003906000526020600020906003020160009091909190915060008201518160000160006101000a81548173ffffffffffffffffffffffffffffffffffffffff021916908373ffffffffffffffffffffffffffffffffffffffff16021790555060208201518160010190805190602001906101b5929190610621565b506040820151816002015550503373ffffffffffffffffffffffffffffffffffffffff167f5f7e16dc676677766a70e9c5628aa6c54ddb8b6e5188e2ae1e1f17f1ffbea716428360405161020a929190610a41565b60405180910390a26000655af3107a4000905047811115610260576040517f08c379a0000000000000000000000000000000000000000000000000000000008152600401610257906109e6565b60405180910390fd5b60003373ffffffffffffffffffffffffffffffffffffffff16826040516102869061095d565b60006040518083038185875af1925050503d80600081146102c3576040519150601f19603f3d011682016040523d82523d6000602084013e6102c8565b606091505b505090508061030c576040517f08c379a000000000000000000000000000000000000000000000000000000000815260040161030390610a06565b60405180910390fd5b600160008082825461031e9190610b38565b925050819055506103646040518060400160405280600d81526020017f25732068617320776176656421000000000000000000000000000000000000008152503361055c565b505050565b60008054905090565b60606001805480602002602001604051908101604052809291908181526020016000905b828210156104ba57838290600052602060002090600302016040518060600160405290816000820160009054906101000a900473ffffffffffffffffffffffffffffffffffffffff1673ffffffffffffffffffffffffffffffffffffffff1673ffffffffffffffffffffffffffffffffffffffff16815260200160018201805461041f90610c0c565b80601f016020809104026020016040519081016040528092919081815260200182805461044b90610c0c565b80156104985780601f1061046d57610100808354040283529160200191610498565b820191906000526020600020905b81548152906001019060200180831161047b57829003601f168201915b5050505050815260200160028201548152505081526020019060010190610396565b50505050905090565b610559816040516024016104d79190610994565b6040516020818303038152906040527f41304fac000000000000000000000000000000000000000000000000000000007bffffffffffffffffffffffffffffffffffffffffffffffffffffffff19166020820180517bffffffffffffffffffffffffffffffffffffffffffffffffffffffff83818316178352505050506105f8565b50565b6105f482826040516024016105729291906109b6565b6040516020818303038152906040527f319af333000000000000000000000000000000000000000000000000000000007bffffffffffffffffffffffffffffffffffffffffffffffffffffffff19166020820180517bffffffffffffffffffffffffffffffffffffffffffffffffffffffff83818316178352505050506105f8565b5050565b60008151905060006a636f6e736f6c652e6c6f679050602083016000808483855afa5050505050565b82805461062d90610c0c565b90600052602060002090601f01602090048101928261064f5760008555610696565b82601f1061066857805160ff1916838001178555610696565b82800160010185558215610696579182015b8281111561069557825182559160200191906001019061067a565b5b5090506106a391906106a7565b5090565b5b808211156106c05760008160009055506001016106a8565b5090565b60006106d76106d284610a96565b610a71565b9050828152602081018484840111156106ef57600080fd5b6106fa848285610bca565b509392505050565b600082601f83011261071357600080fd5b81356107238482602086016106c4565b91505092915050565b60006020828403121561073e57600080fd5b600082013567ffffffffffffffff81111561075857600080fd5b61076484828501610702565b91505092915050565b600061077983836108ef565b905092915050565b61078a81610b8e565b82525050565b61079981610b8e565b82525050565b60006107aa82610ad7565b6107b48185610afa565b9350836020820285016107c685610ac7565b8060005b8581101561080257848403895281516107e3858261076d565b94506107ee83610aed565b925060208a019950506001810190506107ca565b50829750879550505050505092915050565b600061081f82610ae2565b6108298185610b16565b9350610839818560208601610bd9565b61084281610cfc565b840191505092915050565b600061085882610ae2565b6108628185610b27565b9350610872818560208601610bd9565b61087b81610cfc565b840191505092915050565b6000610893603483610b27565b915061089e82610d0d565b604082019050919050565b60006108b6602783610b27565b91506108c182610d5c565b604082019050919050565b60006108d9600083610b0b565b91506108e482610dab565b600082019050919050565b60006060830160008301516109076000860182610781565b506020830151848203602086015261091f8282610814565b9150506040830151610934604086018261093f565b508091505092915050565b61094881610bc0565b82525050565b61095781610bc0565b82525050565b6000610968826108cc565b9150819050919050565b6000602082019050818103600083015261098c818461079f565b905092915050565b600060208201905081810360008301526109ae818461084d565b905092915050565b600060408201905081810360008301526109d0818561084d565b90506109df6020830184610790565b9392505050565b600060208201905081810360008301526109ff81610886565b9050919050565b60006020820190508181036000830152610a1f816108a9565b9050919050565b6000602082019050610a3b600083018461094e565b92915050565b6000604082019050610a56600083018561094e565b8181036020830152610a68818461084d565b90509392505050565b6000610a7b610a8c565b9050610a878282610c3e565b919050565b6000604051905090565b600067ffffffffffffffff821115610ab157610ab0610ccd565b5b610aba82610cfc565b9050602081019050919050565b6000819050602082019050919050565b600081519050919050565b600081519050919050565b6000602082019050919050565b600082825260208201905092915050565b600081905092915050565b600082825260208201905092915050565b600082825260208201905092915050565b6000610b4382610bc0565b9150610b4e83610bc0565b9250827fffffffffffffffffffffffffffffffffffffffffffffffffffffffffffffffff03821115610b8357610b82610c6f565b5b828201905092915050565b6000610b9982610ba0565b9050919050565b600073ffffffffffffffffffffffffffffffffffffffff82169050919050565b6000819050919050565b82818337600083830152505050565b60005b83811015610bf7578082015181840152602081019050610bdc565b83811115610c06576000848401525b50505050565b60006002820490506001821680610c2457607f821691505b60208210811415610c3857610c37610c9e565b5b50919050565b610c4782610cfc565b810181811067ffffffffffffffff82111715610c6657610c65610ccd565b5b80604052505050565b7f4e487b7100000000000000000000000000000000000000000000000000000000600052601160045260246000fd5b7f4e487b7100000000000000000000000000000000000000000000000000000000600052602260045260246000fd5b7f4e487b7100000000000000000000000000000000000000000000000000000000600052604160045260246000fd5b6000601f19601f8301169050919050565b7f547279696e6720746f207769746864726177206d6f7265206d6f6e657920746860008201527f616e2074686520636f6e7472616374206861732e000000000000000000000000602082015250565b7f4661696c656420746f207769746864726177206d6f6e65792066726f6d20636f60008201527f6e74726163742e00000000000000000000000000000000000000000000000000602082015250565b5056fea2646970667358221220c0b7521ff9250237975a0d9714fd79a276ee9930ebcfcce771157b86b102c3be64736f6c63430008040033",
  "linkReferences": {},
  "deployedLinkReferences": {}
}